:08000000803102288731FD2F39
:100F48008731AE27873122000D168731D2278731A6
:100F58008031022823008D018E018C0121000D12A1
:100F68000D1422008D012100951324000D14080092
:100F7800C52F0630F2003030890BC02FF20BC02F7E
:100F880000320130F0020030F13B700A031DD02F0F
:100F9800710A031DD02FD12FBD2F080020000D1876
:100FA800D62FD72FF32F1430F0000030F1008731FF
:100FB800BC27873120000D18E22FE32FF32F2200E2
:100FC8000D1220000D1CE92FEA2FE52F1430F00038
:100FD8000030F1008731BC27873122000D161A3006
:100FE800F300F830890BF62FF30BF62F0032D22FCF
:080FF800080020008731A42F3E
:020000040001F9
:04000E00C409FF1F03
:00000001FF
