:08000000803102288731FD2F39
:100F420021001E088F3960389E009E17FC309E05D6
:100F52001D140800210019088739703899001908F2
:100F6200FC39023899000800F3007308F200F20D10
:100F7200F20D21001D087206833972069D000330AE
:100F8200890BC12F000021009D149D18C92FCA2F63
:100F9200C62F1C08F1001B08F00008008731AB27A0
:100FA20087318731A127873123008C1421008C14CB
:100FB20023000D1221000D1222000D12C230F40086
:100FC2000130F50001308731B52787317108F7000C
:100FD2007008F60077087502031DF12F7608740277
:100FE2000318F42FF52FF82F22000D16E32F2200FD
:0E0FF2000D12E32F8031022820008731CF2F0F
:020000040001F9
:04000E00C409FF1F03
:00000001FF
